:10000000F6EF08F068961200046ED8CF05F0E0CF46
:1000100006F00001E9CF0CF0EACF07F0E1CF08F0DD
:10002000E2CF09F0D9CF0AF0DACF0BF0F3CF12F01C
:10003000F4CF13F0FACF14F0F5CF15F0F6CF16F099
:10004000F7CF17F000C00EF001C00FF002C010F0A3
:1000500003C011F0A0AA30EF00F0A1BA35EF06F00E
:100060000EC000F00FC001F010C002F011C003F08C
:100070000CC0E9FF07C0EAFF078E08C0E1FF09C016
:10008000E2FF0AC0D9FF0BC0DAFF12C0F3FF13C0B2
:10009000F4FF14C0FAFF15C0F5FF16C0F6FF17C035
:1000A000F7FF045006C0E0FF05C0D8FF1000F76A54
:1000B000BE0FF66E000EF7220900F5501200000385
:1000C000FFFFFFFFFFFFFFFFFFFFFFFFFFFFF76ADD
:1000D000DE0FF66E000EF7220900F5501200080040
:1000E00011000000000000000000000000000000FF
:1000F0000000000000000000000000000000F76A9F
:100100000E0FF66E010EF7220900F55012000600E0
:10011000FF0901A101190129081580257F7508959E
:1001200010810219012908750895109102C0F76A1B
:100130003E0FF66E010EF7220900F5501200000086
:10014000F76A500FF66E010EF7220900F550120003
:100150002000F76A620FF66E010EF7220900F550D3
:100160001200090229000101008032090400000286
:100170000300000009210001000122200007058181
:100180000311000A0705010311000A00F76A9C0F1A
:10019000F66E010EF7220900F55012000100F76A11
:1001A000AE0FF66E010EF7220900F5501200120094
:1001B000F76AC00FF66E010EF7220900F550120023
:1001C0001201100100000008D20401000001010228
:1001D00000016D92699468A402D06894FCD7689875
:1001E00041EF06F0080E0401016F040E4D6E100E73
:1001F0004DC003F4026F880E006F046B040E076F8E
:10020000180E066F0001120070A002D0EBDF709094
:10021000689A48EF06F06A6A68924DEF06F05990C6
:1002200058BE5980589E5850100803E2000E016EC7
:1002300016D059A00BD0036A585039DFFF0802E1ED
:10024000000E01D0010E016E0AD009D0036A585089
:100250002EDFFF0802E1000E01D0010E016E120038
:10026000036A5750700FE96E0F0E0320EA6EEF6AB3
:1002700057C058F0D4DF015218E05750080DF35022
:10028000596AE96E040E5924EA6EEF6A5750080D58
:10029000F350596A586E040E5826000E592258C061
:1002A000E9FF040E5924EA6EEF6A1200010E566E41
:1002B00056500F0805E356C057F0D2DF562AF8D73C
:1002C0001200256A246A4C6A4C520AE1036A4C50B7
:1002D000260FE96E000E0320EA6EEF6A4C2AF4D76F
:1002E0001B6A010E1C6E1A6A12006B6A696A6A6ADE
:1002F000686A6E6A706ADADFE4DF160E706E68A6EE
:1003000002D080DEFCD79F0E6B6E3D0E696E6D983D
:1003100069DF030E1F6E52EF06F0698469986D82E3
:1003200057EF06F0689C5CEF06F052C020F0120018
:100330002068120055C001F054C000F05466012A34
:100340000900F5CFEEFF002EFBD7012EF9D7F86A92
:100350001200506A245025103EE0505007083BE33D
:100360001D50FC0F26E2040FF6EF01F023C003F04E
:100370002250EFDE516E1DD023C003F02250BFDEAD
:10038000516E17D0C00E2224526E7F0E2320536E62
:10039000F86AF76E52C0F6FFEA6A510EE96E556AC6
:1003A000010E546EC7DF05D023C003F0225000DFDA
:1003B000516E222AD8B4232A2450D8B42506240604
:1003C0005050502A036A180FE96E040E0320EA6E9B
:1003D00051C0EFFFBFD72450251004E1505008084A
:1003E00001E01A6A50C052F0A0DF1200E824F76A58
:1003F000F736070FF66E040EF7220A00F550FA6E74
:100400000800F550F96E6C0378038403A8034F6A63
:10041000236A226A1D6A04011351010A000109E0DE
:10042000030A0DE0010A0FE0220A41E0030A54E04A
:100430006BD0256A120E246E030E1D6E67D0256ADE
:10044000290E246E63D0020E1D6E4F6A04011251F4
:100450004F5C1AE2C00E2224506E7F0E2320516E94
:10046000F86A51C0F7FF50C0F6FFEA6A520EE96E13
:10047000556A010E546E00015DDF52502226000EB7
:1004800023224F2AE3D70401C00E2224506E7F0E90
:100490002320516EF86AF76E50C0F6FFEA6A240E08
:1004A000E96E556A010E546E000144DF2FD0036AD5
:1004B00004011251000173DE226E236A223C02D035
:1004C000235208E023C003F0225043DE246E256A45
:1004D0001DD002D02DDF29D0036A04011451000180
:1004E00026DE226E236A223C02D023520BE0010E4C
:1004F0001D6E036A04011451000122DE246E256A78
:1005000005D002D015DF11D013DF0FD0040117532F
:1005100008E1255203E12450165D03E2256A16C462
:1005200024F0010E1A6E000114DF12004E5204E195
:10053000040E1F6EBBDEB3D0050E1F6E040E516E8F
:10054000200E506E010E4F6E4F500F08D8A0A7D04E
:100550004FC057F085DE526A036A4F50A8DDFF088E
:100560004FE0040E526ED8904F34036AB0DD09009C
:10057000F5CF03F0536E03C054F04F50080DF35005
:10058000576A566E010E5624016E000E5720036EF8
:1005900001C0E9FF040E0324EA6E53C0EFFF4F5081
:1005A000080DF350576A566E020E5624016E000E67
:1005B0005720036E01C0E9FF040E0324EA6E51C008
:1005C000ECFFED5250C0EFFFD8904F34036A7FDD4F
:1005D0000900F5CF03F0502603505122880E556EC6
:1005E00054A001D0558054A201D055824F50080D1F
:1005F000F350576AE96E040E5724EA6E55C0EFFFB8
:10060000036A4F5054DDFF0834E052824F50080D0A
:10061000F350576A566E040E5626000E5722020EED
:100620005624016E000E5720036E01C0E9FF040E30
:100630000324EA6E51C0ECFFED5250C0EFFFD8909A
:100640004F34036A44DD0900F5CF03F05026035010
:1006500051224F50080DF350576A566E040E56261D
:10066000000E572256C0E9FF040E5724EA6E400ED2
:10067000EF6E5250060802E10E0E526E036A4F50A2
:1006800016DD010801E05288036A4F50700FE96ED1
:100690000F0E0320EA6E52C0EFFF4F2A55D79EEF90
:1006A00003F004011151000A00010DE0010A14E0F9
:1006B000020A1FE0060A29E0030A2EE00E0A2EE0D5
:1006C000010A32E040D01CC018F40401196B020E7C
:1006D000526E00012ADE38D00401122D07D0010E1F
:1006E0001C16526A000121DE03D00401000120DE45
:1006F0002BD00401122D06D01C82526A000115DE97
:1007000003D00401000114DE1FD0020E1A6E12C4C1
:1007100021F0526A0ADE18D07ADE16D01BC018F417
:10072000010E526E02DE10D004011251010809E3DD
:1007300012C41BF012C44EF00001F8D6526AF5DD67
:100740000401000101D0F4DDB7EF04F01BC04EF04E
:1007500004011151000A000107E00A0A0DE0010A34
:1007600028E00D0A38E039D00401186B196B020E2D
:10077000526E0001DADD32D04E5219E0010E4E5CAD
:10078000036A04DD016E0401145DD8A002D00001EB
:100790000ED0036A1451260FE96E000E0320EA6E94
:1007A000EFCF18F4010E526E0001BFDD01D0C0DDA5
:1007B00015D04E520EE0036A04011451260FE96E63
:1007C000000E0320EA6E12C4EFFF526A0001ADDD95
:1007D00001D0AEDD03D01BDE01D0AADDB7EF04F0FF
:1007E0004F904EBE4F804E9E4FA011D04E50080DE0
:1007F000F350516A506E040E5026000E512250C024
:10080000E9FF040E5124EA6E880EEF6E09D04E50B7
:10081000080DF350516AE96E040E5124EA6EEF6A36
:10082000036A4E50700F016E0F0E032201C0E9FFE4
:1008300003C0EAFFEF907DEF04F04F904EBE4F8073
:100840004E9E4FA011D04E50080DF350516A506E7D
:10085000040E5026000E512250C0E9FF040E512410
:10086000EA6E840EEF6E0AD04E50080DF350516AB6
:10087000E96E040E5124EA6E840EEF6E83EF04F0ED
:100880004F904EBE4F804E9E4FA011D04E50080D3F
:10089000F350526A516E040E5126000E522251C07E
:1008A000E9FF040E5224EA6EEFCF50F00AD04E500A
:1008B000080DF350526AE96E040E5224EA6EEFCF2F
:1008C00050F050AE02D050B402D0000E01D0010E54
:1008D000016E8DEF04F014C458F0A1DC015228E041
:1008E00004011151010A000105E0020A09E0030AAE
:1008F0000DE01DD014C44EF073D7526A16DD18D027
:1009000014C44EF09AD7526A10DD12D00401186B4D
:10091000196B14C44EF00001B3D7015204E0010E6C
:100920000401186F0001020E526EFFDC01D000DDE1
:10093000B7EF04F0040111510001FADCB7EF04F045
:100940001A6A040110517F0B000A000107E0010A36
:1009500007E0030A07E0230A07E008D0A2D607D081
:10096000F5D605D0B8D703D0E5D701D0E1DCE5EF67
:1009700005F04E50080DF350546AE96E040E5424ED
:10098000EA6EEFCF50F04F50020806E150AC02D0B3
:100990004F6A02D0010E4F6E4F50030813E1840ED0
:1009A000506E4E50080DF350546A536E040E532689
:1009B000000E542253C0E9FF040E5424EA6E840E44
:1009C000EF6E07D04F2C03D0C80E506E02D0880EA9
:1009D000506ED8904E34036A67EC00F00900F5CFF2
:1009E00003F0516E03C052F04E50080DF350546A9C
:1009F000536E010E5324016E000E5420036E01C08D
:100A0000E9FF040E0324EA6E51C0EFFF52A001D0AB
:100A1000508052A201D050824E50080DF350546ABB
:100A2000E96E040E5424EA6E50C0EFFF1200036A10
:100A30005350700FE96E0F0E0320EA6EEF5212E072
:100A40005350080DF350556A546E040E5426000E90
:100A5000552254C0E9FF040E5524EA6EEFCF56F03C
:100A600056AE02D0000E01D0010E016E12004EC033
:100A700053F0DDDF01526EE04E50080DF350546A22
:100A8000536E040E5326000E5422010E5324016EA1
:100A9000000E5420036E01C0E9FF040E0324EA6E29
:100AA0004FC0EFFF5150020817E14E50080DF350B0
:100AB000546A536E040E5326000E542253C0E9FFAD
:100AC000040E5424EA6EEFCF52F052AC02D0516AB9
:100AD00002D0010E516E13D05150040810E14E5057
:100AE000080DF350546AE96E040E5424EA6EEFCFF9
:100AF00052F052AC03D0010E516E01D0516A512C0C
:100B000003D0480E526E02D0080E526E4E50080DA1
:100B1000F350546A536E040E5326000E542253C0F1
:100B2000E9FF040E5424EA6E52C0EFFF4E50080D48
:100B3000F350546A536E040E5326000E542253C0D1
:100B4000E9FF040E5424EA6EEF508009EF6E010EA7
:100B5000016E02D0000E016E12004E5200E1120032
:100B60004FC06EFF4F5203E0040E1F6E02D0020E04
:100B70001F6EC0EF05F01B6A1A6A21C04FF0F0D754
:100B8000CDEF05F04E5209E11A2C03D0A9EC01F08B
:100B900004D01A500208D8B4EED712001E304C6EA2
:100BA0004C324C321F0E4C161E5241E104010051D2
:100BB0003C0B4D6E430E00174D5034081EE104519E
:100BC000800B01E0046B0001BBD66D98203C05D082
:100BD0004E6A030E4F6ECDDE0ED04E6A020E4F6E81
:100BE000C8DE2050FE0807E04E6A506A20C04FF071
:100BF000040E516E3CDF18D004014D50040815E17D
:100C00004E6A0001AADF4E6A020E4F6EB2DE20501D
:100C1000FE080AE0203C01D007D04E6A506A20C08E
:100C20004FF0010E516E23DF04011CD000011E5055
:100C300004080EE120684E6AA5DF203C01D007D0F1
:100C40004E6A506A20C04FF0020E516E10DF09D07C
:100C50001EB404D04CC04EF080DF03D04CC04EF028
:100C600091DF0401000166EF06F0A19A1F52D8B48B
:100C700033D06852D8B430D068A403D069B4E9EF57
:100C800000F06DB229D068AA03D069BA04EF01F070
:100C900068A203D069B20BEF01F068A003D069B07D
:100CA00075EF01F068A803D069B88DEF01F068AC6A
:100CB00003D069BC92EF01F04B6A68A608D069A620
:100CC00006D06CCF1EF002EC00F068D701D004D043
:100CD0004B504B2A0308F1E230EF00F0555342200D
:100CE000484944204578616D706C650020202020C3
:100CF0002020202020202020202020200000EA6A20
:100D00003E0EE96EEF500EE00F0E016E006A002EEF
:100D1000FED7012EFBD78F0E006E002EFED70000EF
:100D2000EF2EF2D7120043B002D08C9601D08C8601
:100D3000959643B202D08C9801D08C88959843B494
:100D400002D08C9A01D08C8A959A43B602D08C9CA2
:100D500001D08C8C959C00008C849594070E006EBD
:100D6000002EFED700D08C9495941200446A95868C
:100D7000000E83B6010E44129588000E83B8010E52
:100D8000006ED890003600504412958A000E83BA47
:100D9000010E006E00360036FC0E001600504412A4
:100DA000958C000E83BC010E006E003600360036B6
:100DB000F80E00160050441244C001F0120095864F
:100DC0009588958A958C8C82959200008C84959458
:100DD0000000CCDF01C043F08C94959400008C841B
:100DE0009594030E006E002EFED700D0BFDF01C029
:100DF00042F08C94959495969598959A959C433845
:100E0000006EF00E001600504210016E0EEF07F05B
:100E10009594959095928C909590D1D701C042F081
:100E200001BEFBD7405202E18C9001D08C8095909E
:100E300000008C92959200008C9495944138426EFB
:100E40000F0E421642C043F06EDF41500F0B426E50
:100E5000436E69DF1200280E3A6E0C0E3B6E010ED7
:100E60003C6E060E3D6E8C9495948C9095908C9271
:100E7000959295969598959A959C9594959095921E
:100E80000F0E3E6E3CDF010E396E3950030808E349
:100E9000030E436E48DF050E3E6E31DF392AF5D76B
:100EA000020E436E40DF050E3E6E29DF396A39506F
:100EB00003080DE3036A39503A0FE96E000E032070
:100EC000EA6EEFCF41F0406AA3DF392AF0D702EF94
:100ED00009F03D2C01D003D0400E3E6E01D03E6A99
:100EE000010E3C5C3E263E5080093F6E406A416EDA
:100EF0008FDF12003B50070A07E00B0A0AE0060AE0
:100F000010E0020A14E018D0010E3C6E3D6EE1DFE5
:100F100018D0406A010E416E7BDF020E3E6EEFDE9E
:100F200010D0010E3C6E020E3D6ED3DF0AD0406A37
:100F3000100E416E6DDF05D0010E406E3BC041F0DA
:100F400067DF12000900F5520CE0F6CF39F0F7CF59
:100F50003AF0F5CF3BF0CEDF39C0F6FF3AC0F7FFED
:100F6000F1D712006D926D6A696A080E6F6E945027
:100F70003009946E1F6A196AF2BE198EF29E61ECF6
:100F800001F019BEF28EC6EF07F0ECD70FEF09F0B3
:100F9000196AF2BE198EF29E61EC01F019BEF28E52
:100FA0006D926D6A6D8C00D000D000006D9C140EA7
:100FB0006F6E696A6D86010E1F6EE2EF07F06DB607
:100FC00001D0E6D71F2C0BD06DBA09D0686A696AC8
:100FD000A08AC00EF212110E696E020E1F6E17EF7C
:100FE00009F01B50016E18EF09F0036A3950700FB9
:100FF000E96E0F0E0320EA6EEF520DE03950080D36
:10100000F3503B6A3A6EE96E040E3B24EA6EEFCF72
:101010003CF03CAE02D0000E01D0010E016E1DEF7F
:1010200009F03E50080DF350496A486E020E4824FC
:10103000016E000E4920036E01C0E9FF040E032477
:10104000EA6EECCF44F0ED52EFCF43F03E50080D86
:10105000F350496A486E010E4824016E000E492083
:10106000036E01C0E9FF040E0324EA6E476AEFCF66
:1010700046F03E50080DF350496AE96E040E4924CB
:10108000EA6EEFCF45F045A001D0478045A201D0E0
:1010900047824750425C08E303E14150465C04E26A
:1010A00047C042F046C041F040C0EAFF3FC0E9FF00
:1010B00044C0E2FF43C0E1FF42C002F041C001F082
:1010C000015202E0022A02D0025206E0E6CFEEFF11
:1010D000012EFCD7022EFAD741C001F042C002F027
:1010E0007DEF08F039C03EF03BC040F03AC03FF021
:1010F0003DC042F03CC041F094D702C03DF001C079
:101100003CF0196AF2BE198EF29E39C04EF0020E02
:101110004F6E2FDC19BEF28E3CC001F03DC002F0D4
:1011200032EF09F0EF520FE0EACF3AF0E9CF39F0B1
:10113000EFCF3BF0DFDE3AC0EAFF39C0E9FFE92A32
:10114000D8B4EA2AEFD73BEF09F0196AF2BE198E3C
:10115000F29E39C053F06BDC19BEF28E015242E0B0
:101160003950080DF350426A416E040E4126000EBC
:101170004222020E4124016E000E4220036E01C085
:10118000E9FF040E0324EA6EECCF40F0ED52EFCFFE
:101190003FF040C0EAFF3FC0E9FF3BC0E2FF3AC07A
:1011A000E1FF3DC002F03CC001F0015202E0022A22
:1011B00002D0025206E0E6CFEEFF012EFCD7022E4F
:1011C000FAD7196AF2BE198EF29E39C04EF03DC0B0
:1011D00050F03CC04FF03EC051F049DC19BEF28ED9
:1011E000015002D0000E016E4DEF09F0F86AD09E5A
:1011F000078E386A376AC150C00B0F09C16E070EDF
:10120000B46E29D60C0E3B6E75DE010E3C6E3D6E43
:1012100060DEDC0EF66E0C0EF76E94DEB6D6040EB3
:10122000396EFA0E3E6E6BDD392EFBD7C8D6D9D695
:10123000015233E0010E396ED8D601522EE0010E74
:101240003C6E020E3D6E45DEEC0EF66E0C0EF76E39
:1012500079DE010E396E3B6A270E3A6E3D6A100E3A
:101260003C6E40D7010E3C6E020E3D6E32DEEA6AE5
:10127000270EE96E57D7040E396EFA0E3E6E3FDD2B
:10128000392EFBD7010E396E3B6A270E3A6E3D6A46
:0E129000100E3C6E020E3E6E58D7C8D70300FB
:107FC0000403090408034300430053002003550041
:107FD00053004200200048004900440020004500B2
:107FE000780061006D0070006C00650014033100C2
:107FF00032003300340035003600370038003900D5
:020000040030CA
:0E00000021CE3E1F0007A1000FC00FE00F40F1
:00000001FF
;PIC18F4550
;CRC=A475  CREATED="23-Mar-25 07:54"
